:020000040800F2
:1000000098090020350200082D2300081B14000861
:10001000FB21000899030008694000080000000067
:10002000000000000000000000000000352C000867
:100030002D0E000800000000AD2700085135000813
:100040004F0200084F0200084F0200084F0200084C
:100050004F0200084F0200084F0200084F0200083C
:100060004F0200084F0200084F0200084F0200082C
:100070004F0200084F0200084F0200084F0200081C
:100080004F0200084F0200084F0200080000000065
:100090000000000000000000000000004F02000807
:1000A0004F0200084F0200084F020008E136000826
:1000B0004F0200084F0200084F0200084F020008DC
:1000C0004F0200084F0200084F0200084F020008CC
:1000D0004F0200084F020008713E000800000000B7
:1000E0004F0200084F0200084F0200080000000005
:1000F0000000000000000000000000004F020008A7
:10010000000000004F020008F93800084F02000804
:1001100000000000000000000000000000000000DF
:100120004F0200084F0200084F0200084F0200086B
:100130004F02000800000000000000000000000066
:100140000000000000000000000000004F02000856
:100150004F0200084F0200084F0200084F0200083B
:100160004F0200084F0200080000000000000000DD
:10017000000000000000000000000000000000007F
:10018000000000004F020008000000000000000016
:100190004F02000800F002F800F03CF80AA090E8D6
:1001A000000C82448344AAF10107DA4501D100F032
:1001B00031F8AFF2090EBAE80F0013F0010F18BFC3
:1001C000FB1A43F001031847C0590000E059000032
:1001D000103A24BF78C878C1FAD8520724BF30C873
:1001E00030C144BF04680C60704700000023002445
:1001F00000250026103A28BF78C1FBD8520728BF37
:1002000030C148BF0B6070471FB505F038FC1FBDFB
:1002100010B510BD00F046F81146FFF7F5FF04F0E9
:1002200033FD00F064F803B4FFF7F2FF03BC04F001
:10023000FBFB00000948804709480047FEE7FEE74E
:10024000FEE7FEE7FEE7FEE7FEE7FEE7FEE7FEE786
:1002500004480549054A064B70470000553500081B
:1002600095010008980300209809002098050020B7
:10027000980500207047704770477047704710B569
:1002800000F008F8006810BD10B5044600F002F850
:10029000046010BD004870473803002000487047D4
:1002A000380300207546FFF7F9FFAE4605006946A2
:1002B000534620F00700854618B020B5FFF7C8FF69
:1002C000BDE820404FF000064FF000074FF0000857
:1002D0004FF0000B21F00701AC46ACE8C009ACE8D8
:1002E000C009ACE8C009ACE8C0098D46704710B53C
:1002F0000446AFF300802046BDE81040FFF793BFEF
:10030000B0F90020B1F90030D21A00EE102AF8EE50
:10031000C00A00EE103AB8EEC00A1E4A92ED001A6A
:1003200001EE200ABDEEC00A10EE102A12B20A80B9
:10033000B0F90220B1F90230D21A00EE102AF8EE1C
:10034000C00A00EE103AB8EEC00A124A92ED001A46
:1003500001EE200ABDEEC00A10EE102A12B24A8049
:10036000B0F90420B1F90430D21A00EE102AF8EEE8
:10037000C00A00EE103AB8EEC00A064A92ED001A22
:1003800001EE200ABDEEC00A10EE102A12B28A80D9
:1003900070470000B000002000BFFEE79FED071A85
:1003A00060EE811AB7EE002A82EE211A31EE001AB1
:1003B000C0EE011A0248C0ED001A7047DB0FC940B9
:1003C000B000002010B52DED068B86B0F2480088F5
:1003D000F249097890FBF1F201FB1201EF48007835
:1003E000401E814202D10120ED49C870EA480088D0
:1003F000EC49097890FBF1F201FB1201E948007821
:10040000401E814202D10120E5498870E2480088FF
:10041000E549097890FBF1F201FB1201E24800780E
:10042000401E814202D10120DD490872DA4800886D
:10043000401C80B2D84908803C2801D100200880A7
:10044000D748007838B1D64A5178107802F024FCA9
:100450000020D3490870D248807A48B10020D049A2
:100460008872D2480178D248007802F0E5FB8FE12B
:10047000CB48007A80B30020C9490872CD48018872
:10048000CD480088CD4A1288CD4B1B88CD4CCDE994
:100490000032CDE9020163882288E188A08802F059
:1004A00093FDC94890ED000ABDEEC00A10EE100A97
:1004B00002B2C64890ED000ABDEEC00A10EE100A66
:1004C00001B2C34890ED000ABDEEC00A10EE100A5A
:1004D00000B202F021FD5BE1FFE7B1488078A8B1EE
:1004E0000020AF498870BB48D0ED001AB0EE611A09
:1004F000D0ED021AF0EE610AD0ED011AB0EE610AF9
:1005000001220021084602F0D5FE41E1A448C0784E
:1005100018B30020A249C870AF48B0F90400AE4932
:10052000B1F90210AC4AB2F90020AC4BB3F9043077
:10053000CDE90132CDE90310A848B0F90200A74C7B
:100540000090B4F90030A64CB4F90420B4F90210BC
:10055000B4F9000002F0E0FD1AE19148007968B3B7
:1005600000208F4908719F48D0ED024AB0EE644ADE
:10057000D0ED014AF0EE643AD0ED004AB0EE643AB4
:100580009948D0ED024AF0EE642AD0ED014AB0EE6F
:10059000642AD0ED004AF0EE641A9448D0ED024A85
:1005A000B0EE641AD0ED014AF0EE640AD0ED004AD4
:1005B000B0EE640A012002F091FBE9E0784840794E
:1005C00068B30020764948718948D0ED024AB0EE00
:1005D000644AD0ED014AF0EE643AD0ED004AB0EE44
:1005E000643A8448D0ED024AF0EE642AD0ED014A24
:1005F000B0EE642AD0ED004AF0EE641A7E48D0EDE9
:10060000024AB0EE641AD0ED014AF0EE640AD0ED71
:10061000004AB0EE640A022002F060FBB8E06048D5
:100620008079E0B300205E4988716E4890ED0A1B26
:10063000B0EE410AF0EE610A9FED701B53EC112BF6
:1006400051EC100B04F0B4FE41EC1A0B04F01EFC4C
:1006500008EE100A644890ED0A1BB0EE410AF0EE75
:10066000610A9FED661B53EC112B51EC100B04F04B
:100670009FFE41EC1A0B04F009FC08EE900A5B485F
:1006800090ED0A1BB0EE410AF0EE610A9FED5B1B94
:1006900053EC112B51EC100B04F08AFE00E01BE030
:1006A00041EC1A0B04F0F2FB09EE100A9FED554ADB
:1006B000F0EE483A9FED533ADFED522AB0EE682A49
:1006C000DFED501A9FED4F1AF0EE490A9FED4D0AEB
:1006D000032002F003FB5BE03148C079F0B3002057
:1006E0002F49C871424890ED0A1BB0EE410AF0EE66
:1006F000610A9FED421B53EC112B51EC100B04F0DF
:1007000057FE41EC1A0B04F0C1FB08EE100A394801
:1007100090ED0A1BB0EE410AF0EE610A9FED371B27
:1007200053EC112B51EC100B04F042FE41EC1A0B70
:1007300004F0ACFB08EE900A2F4890ED0A1BB0EED7
:10074000410AF0EE610A9FED2D1B53EC112B51EC89
:10075000100B04F02DFE41EC1A0B00E018E004F041
:1007600095FB09EE100A9FED274AF0EE483A9FEDFF
:10077000253ADFED242AB0EE682ADFED221A9FED3C
:10078000211AF0EE490A9FED1F0A042002F0A6FA92
:1007900006B0BDEC068B10BDDA000020DC000020A6
:1007A000C6020020DD000020DE000020D90000206D
:1007B000D80000201C0000201A0000201800002093
:1007C00016000020E8000020AC000020A800002057
:1007D000A4000020380100208A00002084000020AE
:1007E0007E0000207002002000020020380200205D
:1007F000C80100205801002090010020000000E006
:100800004D62503F0000000070B52DED048B044692
:100810000D460026002004E0215C3144CEB2411C8C
:10082000C8B2691E8142F7DC601910F8010CB042B1
:1008300002D0BDEC048B70BD2078AA2802D160786C
:10084000AF2800D0F5E7A078012818D12079012839
:1008500002D1FE4908706AE22079022803D1012002
:10086000FB49087063E220790428F4D1F948007844
:1008700008B9012000E00020F649087057E2A0788E
:10088000022808D120790128E5D1F349087148717F
:100890008871C8714BE2A07810287CD121790902B7
:1008A00009B2627941EA020004F02EFD41EC190B15
:1008B0009FEDEA0B53EC102B04F07AFD41EC180B82
:1008C00004F0E4FAE7490860A179090209B2E27983
:1008D00041EA020004F018FD41EC190B9FEDDF0B1B
:1008E00053EC102B04F064FD41EC180B04F0CEFA2D
:1008F000DC494860217A090209B2627A41EA0200C1
:1009000004F002FD41EC190B9FEDD40B53EC102BBE
:1009100004F04EFD41EC180B04F0B8FAD1498860A0
:10092000A17A090209B2E27A41EA020004F0ECFC81
:1009300041EC190B9FEDC90B53EC102B04F038FD63
:1009400041EC180B04F0A2FAC7490860217B0902A8
:1009500009B2627B41EA020004F0D6FC41EC190BBB
:100960009FEDBE0B53EC102B04F022FD41EC180B55
:1009700004F08CFABC494860A17B090209B2E27B11
:1009800041EA020004F0C0FC41EC190B9FEDB30BEF
:1009900053EC102B00E04EE004F00AFD41EC180B84
:1009A00004F074FAB0498860217C090209B2627CC3
:1009B00041EA020004F0A8FC41EC190B9FEDA70BE3
:1009C00053EC102B04F0F4FC41EC180B04F05EFA2D
:1009D000A6490860A17C090209B2E27C41EA020052
:1009E00004F092FC41EC190B9FED9C0B53EC102B87
:1009F00004F0DEFC41EC180B04F048FA9B49486017
:100A0000217D090209B2627D41EA020004F07CFC0A
:100A100041EC190B9FED910B53EC102B04F0C8FC2B
:100A200041EC180B04F032FA9049886031461020EE
:100A300002F002F97BE1A07811287CD1217909022A
:100A400009B2627941EA020004F05EFC41EC190B44
:100A50009FED820B53EC102B04F0AAFC41EC180B19
:100A600004F014FA82490860A179090209B2E27916
:100A700041EA020004F048FC41EC190B9FED770BB2
:100A800053EC102B04F094FC41EC180B04F0FEF92D
:100A900077494860217A090209B2627A41EA020084
:100AA00004F032FC41EC190B9FED6C0B53EC102B56
:100AB00004F07EFC41EC180B04F0E8F96C49886006
:100AC000A17A090209B2E27A41EA020004F01CFCB0
:100AD00041EC190B9FED610B53EC102B04F068FCFB
:100AE00041EC180B04F0D2F962490860217B09023D
:100AF00009B2627B41EA020004F006FC41EC190BEA
:100B00009FED560B53EC102B04F052FC41EC180BEC
:100B100004F0BCF957494860A17B090209B2E27BA5
:100B200041EA020004F0F0FB41EC190B9FED4B0B86
:100B300053EC102B00E04EE004F03AFC41EC180BB3
:100B400004F0A4F94B498860217C090209B2627C57
:100B500041EA020004F0D8FB41EC190B9FED3F0B7A
:100B600053EC102B04F024FC41EC180B04F08EF92C
:100B700041490860A17C090209B2E27C41EA020015
:100B800004F0C2FB41EC190B9FED340B53EC102B1E
:100B900004F00EFC41EC180B04F078F9364948607B
:100BA000217D090209B2627D41EA020004F0ACFB3A
:100BB00041EC190B9FED290B53EC102B04F0F8FBC3
:100BC00041EC180B04F062F92B4988603146112082
:100BD00002F032F8ABE0A07812285FD1A1790902C7
:100BE00009B2E27941EA020004F08EFB1D4AC2E933
:100BF0000A01A179090209B2E2791143484204F0DD
:100C000083FB184AC2E90C01217B090209B2627B0D
:100C100041EA020004F078FB134AC2E90A01217B91
:100C2000090209B2627B1143484204F06DFB0E4A8F
:100C3000C2E90C01A17C090209B2E27C41EA02008E
:100C400004F062FB094AC2E90A0117E02200002011
:100C50002100002042000020C6020020FCA9F1D2A1
:100C60004D62503F38020020000200207002002038
:100C70009001002058010020C8010020A17C090239
:100C800009B2E27C1143484204F03EFB294AC2E922
:100C90000C013146122001F0CFFF48E0A078132864
:100CA00045D1A179090209B2E27941EA020004F0D2
:100CB0002BFB214AC2E90A01A179090209B2E279B2
:100CC0001143484204F020FB1B4AC2E90C01217B7E
:100CD000090209B2627B41EA020004F015FB174ADF
:100CE000C2E90A01217B090209B2627B1143484231
:100CF00004F00AFB114AC2E90C01A17C090209B205
:100D0000E27C41EA020004F0FFFA0D4AC2E90A015E
:100D1000A17C090209B2E27C1143484204F0F4FAD2
:100D2000074AC2E90C013146132001F085FF00BFDC
:100D30007FE5000070020020900100205801002093
:100D4000C801002010B504463448007838B9AA2CF0
:100D500005D1012031490870314804705DE02F4809
:100D60000078012807D1AF2C05D102202B4908704B
:100D70002B48447051E029480078022807D1F12C13
:100D800005DA0320254908702548847045E023488A
:100D9000007803280CD1322C0ADA04201F4908708D
:100DA0001F48C4701F48047000201F49087034E0B9
:100DB0001A480078042819D11A480078002815DD4F
:100DC00018480078401E17490870174800781649DF
:100DD0000978491C144A1170001D11490C5411481E
:100DE0000078D0B905200D49087016E00B4800784E
:100DF00005280FD10020094908700B480078001D14
:100E000007490C5408480078401DC1B20448FFF758
:100E1000FBFC02E000200149087010BDE200002048
:100E200003030020E0000020E10000207047F0B53F
:100E30000A4600210023002400BF3DE0012505FAF9
:100E400001F3156805EA03049C4234D105684F009C
:100E50000326BE40B543056015794E00B5400668CF
:100E6000354305601579012D02D01579022D16D173
:100E700085684F000326BE40B543856055794E0016
:100E8000B540866835438560456801268E40B54388
:100E90004560456896798E40B6B235434560C56871
:100EA0004F000326BE40B543C560D5794E00B5401E
:100EB000C6683543C560491C1029BFD3F0BDF0B5E5
:100EC000002300244D07ED0E02FA05F3CE1000F1C9
:100ED000200555F826504E07F70E0F26BE40B543A5
:100EE000CF1000F1200646F82750CE1000F1200563
:100EF00055F8265045EA0304CE1000F1200545F8C8
:100F00002640F0BD10B52DED028B194802F06DFDA5
:100F100018490880084600881749098888420DDB6F
:100F20001448008814490988401A00EE100AB8EEE7
:100F3000C00ADFED120A80EE208A0FE00E4800881A
:100F40004FF6FF71081A0B490988084400EE100A91
:100F5000B8EEC00ADFED090A80EE208A0548008855
:100F600005490880B0EE480ABDEC028B10BD0000B8
:100F7000000001406200002060000020002474494D
:100F8000B0F9002000EE102AB8EEC00ADFED0F0A1B
:100F900020EE200A81ED000AB0F9022000EE102AAE
:100FA000B8EEC00ADFED090A20EE200A81ED010A41
:100FB000B0F9042000EE102AB8EEC00ADFED030AF3
:100FC00020EE200A81ED020A7047000089A18B3AC9
:100FD000F0B5024600230024002500201688224F89
:100FE000DFF888C09CF800C027F81C605788204EA6
:100FF000DFF878C09CF800C026F81C7096881D4F5A
:10100000DFF868C09CF800C027F81C6000BF0DE046
:10101000154E36F910603344154E36F910603444DD
:10102000144E36F910603544461CF0B20528EFDB4B
:10103000052693FBF6F636B20E80052694FBF6F6EF
:1010400036B24E80052695FBF6F636B28E80074EF8
:101050003678761C054F3E703E463678052E01D117
:1010600000263E70F0BD0000A8020020B400002061
:10107000B2020020BC02002010B5002000F020F9D0
:10108000002000F0B3F9062000F0A2F900F004F807
:1010900000F0D6F810BD000010B55D4800780028BB
:1010A00071D000215B4802F088FC00205A4908807A
:1010B0005A4908805A4908805A4908805A49088084
:1010C0005A4908806FE05A4B062203213C2000F069
:1010D0002BFB574840785649097840EA012000B276
:1010E00054490880524840795149097940EA012021
:1010F00000B2504948804E48C0784D49897840EA4E
:10110000012000B24B4988800846B0F900004249EE
:10111000B1F90010884204DD464800883E49088045
:101120000BE04448B0F900003C49B1F90010884296
:1011300003DA40480088394908803E48B0F9020087
:101140003749B1F90010884204DD3A4840883449F3
:1011500008800BE03748B0F902003249B1F90010BD
:10116000884203DA334840882E4908803148B0F974
:1011700004002D49B1F90010884205DD2D48808812
:10118000294908800CE042E02A48B0F904002749C8
:10119000B1F90010884203DA264880882349088084
:1011A0000F2003F069FC1A48007800288BD11A49F7
:1011B000B1F90010194AB2F90020881800EBD0717B
:1011C000491009B21C4A11801549B1F90010154A9D
:1011D000B2F90020881800EBD071491009B2164A04
:1011E00051801149B1F90010104AB2F90020881855
:1011F00000EBD071491009B20F4A918003200F49CA
:101200000870012048700121024802F0D6FB10BD91
:1012100042000020000C0040440000204600002056
:10122000480000204A0000204C0000204E00002012
:1012300050000020780000209C000020C602002002
:1012400010B5002406E000F009F8C82003F030FCD7
:10125000601CC4B2322CF6DB10BD00001CB50020AF
:10126000009001906B46062203213C2000F05CFABE
:101270009DF801009DF8001040EA012000B20F49DE
:1012800008809DF805009DF8041040EA012000B296
:101290000A4948809DF803009DF8021040EA0120A9
:1012A00000B2064988800B46B3F90420B3F9021056
:1012B000B3F9000000F014F81CBD00007800002015
:1012C00010B5044614B1002000F090F87021002001
:1012D00000F09AF8A021012000F096F810BD00005F
:1012E000F0B503460C460021012017E0354D35F8D6
:1012F0001060451E334F27F81560BD1D35F810707E
:10130000451E304EB61D26F81570B51D35F8107007
:10131000451EB61D26F81570451CE8B20328E5DB0E
:10132000284DAB806C812A820021002005E0254DEC
:1013300035F910502944451CE8B20328F7DB032592
:1013400091FBF5F52DB2204E358035462D881F4E88
:101350003688AD1B2DB21C4E35800021002006E0E2
:10136000184DAD1D35F910502944451CE8B203282D
:10137000F6DB032591FBF5F52DB2134E758035464E
:101380006D88124E7688AD1B2DB20F4E75800021F0
:10139000002006E00B4D0C3535F910502944451C52
:1013A000E8B20328F6DB032591FBF5F52DB2064ED6
:1013B000B5803546AD88054EB688AD1B2DB2024EC0
:1013C000B580F0BD0E0100208A0000209C000020A6
:1013D00010B50446062C00DD10BD602040EA8400F4
:1013E000C1B2002000F010F800BFF5E710B50446C8
:1013F000022C00DD10BD2146022000F005F864201B
:1014000003F056FB00BFF5E770B504460D462A46CB
:1014100021463C2000F0DAF970BD00BFFEE7000075
:1014200000B54FF480700C49088000F02FF94FF49C
:1014300000700949088000F029F94FF480700649CE
:10144000891E088000F022F94FF48070024908805C
:1014500000F01CF900BD00001A0402401CB5012177
:10146000022001F0C3FA4FF44070009001208DF883
:1014700004008DF8060003208DF8050000208DF88B
:10148000070069460148FFF7D2FC1CBD000402407A
:1014900000B54FF480700C49088000F0F7F84FF465
:1014A00000700949891E088000F0F0F84FF4807040
:1014B0000549891E088000F0E9F84FF48070024960
:1014C000088000F0E3F800BD1A04024030B504467D
:1014D00008250023A8011649088016E05806030EC7
:1014E0004FF480701249891C088000F0CFF84FF447
:1014F00080700F49088000F0C9F80D48083800686E
:1015000000F4007008B143F00103281EA5F10101A9
:10151000CDB2E3D14FF480700549891C088014B125
:10152000FFF77EFF01E0FFF7B3FF184630BD000074
:101530001804024010B5034608241DE04FF48070E3
:101540001249088000F0A2F803F0800028B14FF49F
:1015500000700E49891E088003E04FF400700B49AB
:1015600008805806030E00F091F84FF48070074988
:10157000891E088000F08AF8201EA4F10101CCB277
:10158000DCD14FF480700149088010BD1A0402407C
:1015900000B54FF40070154908804010088000F035
:1015A00075F812480838006808B9012000E00020EA
:1015B00000F4007008B1002000BD4FF400700B492A
:1015C000891C088000F062F808480838006800F4B8
:1015D000007008B10020EFE74FF400700349891C48
:1015E000088000F053F80120E6E7000018040240EC
:1015F00000B54FF480700C49088000F047F84FF4B4
:1016000000700949088000F041F84FF480700649E5
:10161000891E088000F03AF84FF400700249891ED4
:10162000088000F033F800BD1A04024000B5002322
:101630004FF480701449088000F028F84FF40070CF
:101640001149891E088000F021F84FF480700E497E
:10165000891E088000F01AF807E0581CC3B2322B2C
:1016600003DDFFF7C5FF012000BD07480A38006809
:1016700000F400700028F0D14FF480700249088017
:1016800000F004F80020EFE71A04024000BF00BF9A
:1016900000BF00BF00BF00BF00BF00BF00BF0648C3
:1016A000007838B90F2000BF011EA0F10102D0B2AE
:1016B000FAD100BF7047000014000020F0B50646C4
:1016C0000F4614461D46FFF763FF7106080EFFF72D
:1016D00031FFFFF7ABFF18B1FFF78AFF0120F0BD24
:1016E0003846FFF727FFFFF7A1FFFFF751FF012162
:1016F00001EB4601C8B2FFF71DFFFFF797FF0DE0B2
:10170000012C04D10020FFF7E1FE287003E0012046
:10171000FFF7DCFE28706D1C601EC4B2002CEFD1F8
:10172000FFF766FF0020DAE7F0B506460F461446DD
:101730001D46FFF72DFF3046FFF7FCFEFFF776FF53
:1017400018B1FFF755FF0120F0BD3846FFF7F2FE54
:10175000FFF76CFFFFF71CFF711CC8B2FFF7EAFE32
:10176000FFF764FF0DE0012C04D10020FFF7AEFE6F
:10177000287003E00120FFF7A9FE28706D1C601E91
:10178000C4B2002CEFD1FFF733FF0020DCE770B5C7
:1017900004460D461646FFF7FBFE6106080EFFF7EE
:1017A000C9FEFFF743FF18B1FFF722FF012070BD0C
:1017B0002846FFF7BFFEFFF739FF3046FFF7BAFEB6
:1017C000FFF734FFFFF714FF0020F0E770B506467F
:1017D0000C461546FFF7DCFE3046FFF7ABFEFFF781
:1017E00025FF18B1FFF704FF012070BD2046FFF769
:1017F000A1FEFFF71BFF2846FFF79CFEFFF716FF31
:10180000FFF7F6FE0020F0E7F8B506460F4614464F
:101810001D466B46012239463046FFF74FFF2DB17A
:101820000120A0409DF80010084305E00120A040E1
:101830009DF8001021EA0000C0B200909DF8002041
:1018400039463046FFF7A3FF08B9012000E0002029
:1018500001490870F8BD0000200000202DE9F84380
:101860000746884614461D46089E6B46012241469F
:101870003846FFF723FF601CFF2101FA00F0C4F196
:1018800008012944491EFF220A41104300F0FF09C4
:10189000C5F1080006FA00F0C6B2C4F1070006411F
:1018A0009DF8000000EA090000909DF80000304318
:1018B00000909DF8002041463846FFF768FFBDE8DC
:1018C000F883000000B52DED108B87B0B0EE40AA74
:1018D000F0EE60AAB0EE418AB0EE61BAF0EE428A54
:1018E000B0EE629A8DED058AB5EEC0BAF1EE10FA4F
:1018F00009D1F5EEC08AF1EE10FA04D1B5EEC09A26
:10190000F1EE10FA7ED06BEE0B0A48EEA80A49EE13
:10191000090AB0EE600A03F099F9F0EE409A2BEE56
:10192000290AB0EE40BA28EEA90AF0EE408A29EE64
:10193000290AB0EE409AFE4890ED000AFD48D0ED2D
:10194000000A20EE200AFC48D0ED000AFB4890ED8A
:10195000001A00EEC10AF0EE000A60EE20BAF64866
:1019600090ED000AF248D0ED000A20EE200AF3487C
:10197000D0ED000AEF4890ED001A00EE810AF0EE7B
:10198000000A20EE20DAEC4890ED000A20EE000A72
:10199000E748D0ED000A90ED001A00EEC10AE748D2
:1019A000D0ED000A90ED001A00EEC10AE148D0ED3A
:1019B000000A90ED001AF0EE40DA40EE81DA28EEEF
:1019C000AD0AB0EE40EA09EE4DEA29EE2B0AF0EE40
:1019D00040EA4BEE6DEA2BEE0D0AB0EE40FA08EE4F
:1019E000EBFAD74890ED000ADFEDD60A0EEE200A9A
:1019F00080ED000AD44890ED000ADFEDD20A0EEE29
:101A0000A00A00E08FE180ED000AD04890ED000AC6
:101A1000DFEDCC0A0FEE200A80ED000AF0EE000A9E
:101A2000B0EE4A0A00EE8E0AC548D0ED000A30EE4C
:101A3000200AB0EE40AAF0EE000AB0EE6A0A00EE0C
:101A4000AE0AC148D0ED000A30EE200AF0EE40AAFE
:101A5000F0EE000AB0EE480A00EE8F0ABB48D0ED67
:101A6000000A30EE200AB0EE408AFFF74BFAF0EEA3
:101A7000000A80EE201AB64880ED001AAC4890EDBE
:101A8000000AB1EE400A20EE0A0AAC48D0ED000A86
:101A900000EEEA0AA748D0ED000A00EEC80AAC48FA
:101AA00090ED001AA448D0ED000A40EE010AC0ED06
:101AB000000A90ED000A20EE0A0AA048D0ED000AC4
:101AC00000EE880A9B48D0ED000A00EEEA0AA04822
:101AD00090ED001A9648D0ED000A40EE010AC0EDE4
:101AE000000A954890ED000A20EE2A0A9048D0EDB1
:101AF000000A00EEC80A8F48D0ED000A00EE8A0AFC
:101B0000934890ED001A8D48D0ED000A40EE010A8E
:101B1000C0ED000A884890ED000A20EE080A8448CB
:101B2000D0ED000A00EEAA0A8448D0ED000A00EECB
:101B3000CA0A874890ED001A7E48D0ED000A40EEB0
:101B4000010AC0ED000A7C48D0ED000A60EEA00A50
:101B5000774890ED001AD0ED001A41EE210A77483F
:101B600090ED001AD0ED001A41EE210A714890ED77
:101B7000001AD0ED001A41EE210AB0EE600A03F01F
:101B800065F8F0EE409A6C4890ED000A20EE290AC4
:101B900080ED000A664890ED000A20EE290A80EDEB
:101BA000000A664890ED000A20EE290A80ED000A3E
:101BB000604890ED000A20EE290A80ED000A5C489A
:101BC00090ED000AF8EE000A20EE200A5948D0ED08
:101BD000000A20EE200A5848D0ED000AB0EE001AA4
:101BE00060EE810A554890ED001A00EE810A10EE71
:101BF000101A084603F0D2FECDE902019DED020B5A
:101C000002F04EFAB0EE40CAF0EE60CA51EC1C0B86
:101C100003F03CF90FEE900A454890ED000AF8EE0B
:101C2000000A20EE200AD0ED000A20EE200A4348E8
:101C3000D0ED000AB0EE001A60EE810A90ED001AB5
:101C400000EEC10AF7EE000A30EE200A10EE101A7C
:101C5000084603F0A3FECDE90201384890ED000AE2
:101C6000F0EE000A20EE200A3248D0ED000A20EE05
:101C7000200A3148D0ED000AB0EE001A60EE810A69
:101C80002B4890ED001A00EE810A10EE101A08465B
:101C900003F084FECDE900019DED021B9DED000BDC
:101CA00002F01AFDB0EE40CAF0EE60CA51EC1C0B17
:101CB00003F0ECF804909FED270A2FEE800A2648E7
:101CC00080ED020A9DED040AB1EE400ADFED210A23
:101CD00020EE200A80ED010A2048B0F904005028C7
:101CE00005DA1E48B0F9040010F1500F1ADC1A484A
:101CF00090ED000A1948B0F90400404200EE900A45
:101D0000F8EEE00A9FED161A60EE810AB0EE001AB6
:101D100060EE810A0E4890ED001A00EE810A0E482E
:101D200080ED000A00BF07B0BDEC108B00BD0000C5
:101D3000C0000020C8000020BC000020C40000201B
:101D4000CC0000200AD7A33BD0000020D400002004
:101D5000B8000020E12E65423801002084000020F8
:101D6000F1FF793D1CB50121084600F03FFE20201F
:101D7000009001208DF8040000208DF8060002205C
:101D80008DF8070003208DF8050069460348FFF72A
:101D90004EF80020024908601CBD0000000002400F
:101DA00094024042B0F5FA6F02DD4FF4FA6004E0AD
:101DB000B0F57A7F01DA4FF47A70704700B500F021
:101DC000B3F8244840782349097840EA01202249A1
:101DD0000988401A00B2214908801E48C0781D4970
:101DE000897840EA01201C494988401A00B21B4901
:101DF0004880184840791749097940EA0120164976
:101E00008988401A00B2154988801248407A1149E1
:101E1000097A40EA012012490988401A00B21149A2
:101E200008800C48C07A0B49897A40EA01200C49A5
:101E30004988401A00B20B4948800648407B054952
:101E4000097B40EA012006498988401A00B2054909
:101E5000888000BD00010020900000206C00002060
:101E6000960000207200002070B5044601252A2C3F
:101E700015D006DC052C0CD00A2C0CD0142C16D155
:101E80000BE0622C0DD0BC2C0DD0B4F5807F0ED1B0
:101E90000BE006250DE005250BE0042509E00325F0
:101EA00007E0022505E0012503E0002501E0032508
:101EB00000BF00BF80226B216820FFF768FC142060
:101EC00002F0DAFD002000F081F9142002F0D4FDC8
:101ED000032000F031F9142002F0CEFD4FF47A70A7
:101EE00000F07DF9142002F0C7FD032000F04AF94C
:101EF000142002F0C1FD022000F032F9142002F09B
:101F0000BBFDE8B200F022F9142002F0B5FD00207C
:101F100000F053F9142002F0AFFD012000F044F965
:101F2000142002F0A9FD70BD6148007800285CD043
:101F30006048007870B900205F4908804880888038
:101F40005E4908605E4908605E49086001205949A1
:101F50000870704757480078401C564908705A4826
:101F6000B0F90000554909680844544908605648CA
:101F7000B0F90200524909680844514908605248C2
:101F8000B0F904004F49096808444E4908604948BF
:101F90000078FB2829D147480078401E4549087041
:101FA00046480068097890FBF1F000B24249088089
:101FB000434800683F49097890FBF1F000B23E4980
:101FC0004880404800683B49097890FBF1F0A0F553
:101FD000805000B238498880002036490870344962
:101FE0000870012039490870487039480078002885
:101FF0005BD03848007870B90020374908804880A5
:1020000088803649086036490860364908600120F2
:10201000304908709DE72F480078401C2D49087012
:102020003148B0F900002D49096808442B4908607F
:102030002D48B0F902002A49096808442849086077
:102040002948B0F90400274909680844254908606F
:1020500020480078FB2828D11E480078401E1D49E2
:1020600008701E480068097890FBF1F000B21A4928
:1020700008801B4800681749097890FBF1F000B20E
:1020800015494880174800681249097890FBF1F01B
:1020900000B21149888000200E4908700C49087070
:1020A00002200A4908700120487000BF51E7000073
:1020B000220000203000002090000020240000209A
:1020C000280000202C0000206C000020C602002008
:1020D0002100002040000020960000203400002055
:1020E000380000203C0000207200002010B506E0FF
:1020F00000F012F8FFF762FE022002F0BDFC044877
:1021000000780028F4D1034800780028F0D110BDF1
:10211000210000202200002010B501200449087091
:10212000044B0E223B216820FFF7C8FA10BD0000C7
:10213000140000200001002038B5044603230222C9
:102140006B2168200094FFF789FB38BD38B5044641
:10215000032302221A2168200094FFF77FFB38BD79
:1021600038B50446022304221C2168200094FFF79E
:1021700075FB0020032307221C2100906820FFF735
:102180006DFB38BD38B50446022304221B216820AC
:102190000094FFF763FB0020032307221B2100901C
:1021A0006820FFF75BFB38BD10B5044623460122CB
:1021B00037216820FFF728FB10BD10B504462346E1
:1021C00005226A216820FFF71FFB10BD10B50446E9
:1021D000234606226B216820FFF716FB10BD70B561
:1021E00004464FF47A7090FBF4F0401EC5B22A46C4
:1021F00019216820FFF7CBFA70BD00BFFEE7000091
:1022000030B58BB005460C460121022000F0FEFBE4
:102210000121042000F0EAFB02208DF828000020B4
:102220008DF82A004FF47070099001208DF82B0072
:1022300003208DF8290009A93648FEF7F8FD02228F
:1022400006213448FEF73BFE022207213148FEF703
:1022500036FE022208212F48FEF731FE0222092114
:102260002C48FEF72CFE0020ADF82000ADF81A0037
:102270000795ADF8184006A9274801F0B7FD602082
:10228000ADF804000020ADF810000120ADF8060004
:102290004FF47A70039001A91F4801F0FBFB08215D
:1022A0001D4801F03EFC01A91B4801F043FC082138
:1022B000194801F09EFC01A9174801F0A7FC08216C
:1022C000154801F000FD01A9134801F005FD0821A2
:1022D000114801F04AFD01210F4801F05FFB012187
:1022E0000D4801F06AFB4FF47A700C4908800C49E4
:1022F00008800C4908800C49088008460388094872
:102300000288074801880548008801F0F3F80BB0FF
:1023100030BD00000008024000040040160000200C
:10232000180000201A0000201C0000207047000048
:1023300070B5002100230F22C4781CB3174C246809
:1023400004F4E064C4F5E064C4F30721C1F10404BB
:10235000E3B20A4144789C40E1B2847814402143BE
:102360000C07210E0E4C05786155047804F01F050A
:102370000124AC4005786D11AD0005F1E025C5F8EC
:10238000004109E0047804F01F050124AC40054D2C
:102390000678761145F8264070BD00000CED00E08F
:1023A00000E400E080E100E002490143024A1160DC
:1023B000704700000000FA050CED00E09FED3F0AB9
:1023C0003F4880ED000A9FED3F0A80ED010A9FED36
:1023D0003D0A80ED020A9FED3C0B80ED0A0B9FED5C
:1023E0003C0B80ED0C0B9FED350A3B4880ED000A5D
:1023F0009FED340A80ED010A9FED320A80ED020A5A
:102400009FED310B80ED0A0B9FED310B80ED0C0B36
:102410009FED2C0A314880ED000A9FED2A0A80EDDD
:10242000010A9FED280A80ED020A9FED270B80ED3F
:102430000A0B9FED270B80ED0C0B9FED290A294815
:1024400080ED000A9FED280A80ED010AB7EE000A30
:1024500080ED020A9FED250B80ED0A0B9FED250B09
:1024600080ED0C0B9FED1E0A244880ED000A9FEDC5
:102470001E0A80ED010AB7EE000A80ED020A9FED08
:102480001B0B80ED0A0B9FED1B0B80ED0C0B9FEDE2
:10249000140A1B4880ED000A9FED1A0A80ED010A1C
:1024A000B7EE000A80ED020A9FED100B80ED0A0BDB
:1024B0009FED100B80ED0C0B704700009A99993F2F
:1024C00058010020000000000000000000408F4084
:1024D0000000000000408FC090010020C8010020D3
:1024E0006666E63F00020020A69B443C0000000018
:1024F0000088B340000000000088B3C0380200200C
:1025000070020020CDCCCC3C10B52DED0E8B0446D6
:10251000B0EE408AF0EE608A38EE680A84ED030A75
:1025200094ED030A10EE101A084603F037FA41EC56
:10253000190B94ED061BB0EE410AF0EE610A53EC64
:10254000102B02F0D5FCC4E9060194ED0A2BB0EE85
:10255000420AF0EE620A94ED062BB0EE421AF0EE5B
:10256000621A53EC102B51EC110B03F01FF804D23C
:1025700094ED0A0B84ED060B16E094ED0C2BB0EEF7
:10258000420AF0EE620A94ED062BB0EE421AF0EE2B
:10259000621A53EC102B51EC110B02F0CDFE03D25A
:1025A00094ED0C0B84ED060B94ED030AD4ED040AB4
:1025B00030EE600A84ED080A94ED030A84ED040A03
:1025C00024488089B0F5966F03DC9FED230B84EDE2
:1025D000060B94ED020AD4ED080A20EE200A10EE54
:1025E000101A084603F0DAF941EC1A0B94ED010ACF
:1025F00010EE101A084603F0D1F941EC1E0B94EDD1
:10260000061BB0EE410AF0EE610A53EC102B02F00B
:10261000CFFE41EC1C0B94ED000AD4ED030A20EE32
:10262000200A10EE101A084603F0B8F941EC1D0B11
:1026300053EC1C2B02F05CFC41EC1B0B53EC1A2BF3
:1026400002F056FC41EC190B02F020FC6062BDEC7C
:102650000E8B10BD440100200000000000000000AF
:1026600000B589B00121084600F0E0F901210846D3
:1026700000F0BCF94FF47060079002208DF8200044
:1026800003208DF8210000208DF8220002208DF813
:10269000230007A94348FEF7CAFB0122082141484D
:1026A000FEF70DFC012209213E48FEF708FC01223D
:1026B0000A213C48FEF703FC01220B213948FEF7B2
:1026C000FEFB5320ADF810000020ADF812004FF6CD
:1026D000FF7005900020ADF8180004A9324801F001
:1026E00085FB0020ADF80000ADF802000120ADF838
:1026F00004000020ADF80600ADF8080069462A483D
:1027000001F087F90420ADF800000020ADF80200C8
:102710000120ADF804000020ADF80600ADF8080077
:102720006946214801F075F90820ADF80000002045
:10273000ADF802000120ADF804000020ADF806005D
:10274000ADF808006946184801F063F90C20ADF8AF
:1027500000000020ADF802000120ADF804000020C8
:10276000ADF80600ADF8080069460F4801F051F9D0
:1027700001221F210C4801F083F901210A4801F0D0
:102780001CF91B208DF80C0002208DF80D00012093
:102790008DF80E008DF80F0003A8FFF7C9FD09B0F2
:1027A00000BD000000000240000001407047000032
:1027B00010B56C4890ED011ADFED6B1A21EE211A6D
:1027C000F0EE410A694890ED091AB0EE410A6848F6
:1027D000FFF79AFE634890ED001ADFED631A21EED1
:1027E000611AF0EE410A634890ED091AB0EE410A11
:1027F0006148FFF789FE5B4890ED021ADFED5A1A37
:1028000021EE611AF0EE410A5C4890ED001AF2EEFA
:10281000041A21EE611AB0EE410A5948FFF774FE1E
:10282000534890ED090A574880ED000A524890ED50
:10283000090A554880ED000A514890ED090A5348AD
:1028400080ED000A4D48808940F21A4188420ADA38
:102850004FF47A704E4908804E4908804E490880EE
:102860004E49088073E04549898900EE101AB8EE98
:10287000400A4449D1ED000A30EE200A4249D1ED28
:10288000000A30EE200A4149D1ED000A30EE600A1C
:10289000BDEEC00A10EE100AFFF784FA3C4908802A
:1028A0003649898900EE101AB8EE400A3549D1ED53
:1028B000000A30EE200A3449D1ED000A30EE600AF9
:1028C0003249D1ED000A30EE200ABDEEC00A10EE0A
:1028D000100AFFF767FA2F4908802849898900EE16
:1028E000101AB8EE400A2749D1ED000A30EE600A0E
:1028F0002549D1ED000A30EE200A2449D1ED000A25
:1029000030EE200ABDEEC00A10EE100AFFF74AFAB8
:10291000214908801949898900EE101AB8EE400A49
:102920001849D1ED000A30EE600A1749D1ED000ACE
:1029300030EE600A1549D1ED000A30EE600ABDEEB6
:10294000C00A10EE100AFFF72DFA14490880134848
:102950000388114802880F4801880D48008800F05C
:10296000C9FD10BD2C010020E12E65425801002058
:1029700000020020900100203802002044010020C5
:1029800070020020A4000020A8000020AC0000205D
:1029900016000020180000201A0000201C00002053
:1029A00010B50E4890ED021AF0EE410A0C4890ED79
:1029B000021AB1EE411AB0EE410A0A48FFF7A4FD2F
:1029C000064890ED011AF0EE410A054890ED011A13
:1029D000B0EE410A0448FFF797FD10BD3801002012
:1029E00044010020580100209001002029B1064A2E
:1029F00012680243044B1A6004E0034A12688243DF
:102A0000014B1A60704700003038024029B1064A75
:102A100012680243044B1A6004E0034A12688243BE
:102A2000014B1A60704700004038024029B1064A45
:102A300012680243044B1A6004E0034A126882439E
:102A4000014B1A607047000044380240F0B5002185
:102A500000220024022500260223324F3F6807F09F
:102A60000C0121B1042905D0082937D105E02E4FEA
:102A7000076036E02D4F076033E02A4F3F1F3F6865
:102A8000C7F38056274F3F1F3F6807F03F036EB1E3
:102A9000264FB7FBF3F7DFF88CC0ACF1040CDCF881
:102AA00000C0CCF3881C07FB0CF40CE01E4FB7FBF6
:102AB000F3F7DFF870C0ACF1040CDCF800C0CCF325
:102AC000881C07FB0CF4174F3F1F3F68C7F30147F3
:102AD0007F1C7D00B4FBF5F7076002E0124F076032
:102AE00000BF00BF0F4F3F6807F0F0010909104F0A
:102AF0007A5C0768D74047600A4F3F6807F4E051A7
:102B0000890A0B4F7A5C4768D7408760054F3F685A
:102B100007F46041490B064F7A5C4768D740C760AD
:102B2000F0BD0000083802400024F40000127A00D2
:102B3000000000203C480088B0F57A7F03DA4FF4AB
:102B40007A703949088038480088B0F5FA6F03DD9B
:102B50004FF4FA603449088033484088B0F57A7FF2
:102B600003DA4FF47A70304948802F484088B0F536
:102B7000FA6F03DD4FF4FA602B4948802A488088B9
:102B8000B0F57A7F03DA4FF47A70274988802648B7
:102B90008088B0F5FA6F03DD4FF4FA60224988802F
:102BA0002148C088B0F57A7F03DA4FF47A701E4965
:102BB000C8801D48C088B0F5FA6F03DD4FF4FA6095
:102BC0001949C88018480088A0F2DC5000EE100AAD
:102BD000B8EEC00ADFED150A20EE200A144880ED99
:102BE000010A11484088A0F2DC5000EE100AB8EE4D
:102BF000C00ADFED0E0A20EE200A0D4880ED020A21
:102C0000094880880A4988810748C088A0F2DC50BA
:102C100000EE100AB8EEC00ADFED040A20EE200A2A
:102C2000084680ED000A7047E8000020CDCC4C3DFE
:102C3000440100207047000070B504460D46AA20EC
:102C40000D4908704870EF2088700220C87008464F
:102C5000047145710026002005E00749095C3144F4
:102C6000CEB2411CC8B20628F7DB034886710721A3
:102C700000F004F870BD0000D102002070B50546D8
:102C80000E46002404E0285D02F0E4F8601CC4B2A3
:102C9000B442F8DB70BD000070B504460D46AA20B2
:102CA0000D4908704870EE2088700220C8700846F0
:102CB000047145710026002005E00749095C314494
:102CC000CEB2411CC8B20628F7DB03488671072143
:102CD000FFF7D4FF70BD0000D102002070B52DEDCC
:102CE0000A8B82B00546B0EE408AF0EE608AB0EE04
:102CF000419AF0EE619AB0EE42AAF0EE62AAB0EE0E
:102D000043BAF0EE63BAB0EE44CA0024AA222146C8
:102D1000641C7F4842542146641C425405F10F0054
:102D2000C2B22146641C7A48425400222146641CE7
:102D300042549FED780A28EE000ABDEEC00A10EE5C
:102D4000100A00B201909DF805202146641C7048CD
:102D500042549DF804202146641C42549FED6D0AA4
:102D600028EE800ABDEEC00A10EE100A00B20190F3
:102D70009DF805202146641C654842549DF80420B6
:102D80002046611CCCB262490A549FED620A29EECA
:102D9000000ABDEEC00A10EE100A00B201909DF8C4
:102DA00005202046611CCCB259490A549DF80420E4
:102DB0002046611CCCB256490A549FED560A29EEB2
:102DC000800ABDEEC00A10EE100A00B201909DF814
:102DD00005202046611CCCB24D490A549DF80420C0
:102DE0002046611CCCB24A490A549FED4A0A2AEE99
:102DF000000ABDEEC00A10EE100A00B201909DF864
:102E000005202046611CCCB241490A549DF804209B
:102E10002046611CCCB23E490A549FED3E0A2AEE80
:102E2000800ABDEEC00A10EE100A00B201909DF8B3
:102E300005202046611CCCB235490A549DF8042077
:102E40002046611CCCB232490A549FED320A2BEE67
:102E5000000ABDEEC00A10EE100A00B201909DF803
:102E600005202046611CCCB229490A549DF8042053
:102E70002046611CCCB226490A549FED260A2BEE4F
:102E8000800ABDEEC00A10EE100A00B201909DF853
:102E900005202046611CCCB21D490A549DF804202F
:102EA0002046611CCCB21A490A549FED1A0A2CEE36
:102EB000000ABDEEC00A10EE100A00B201909DF8A3
:102EC00005202046611CCCB211490A549DF804200B
:102ED0002046611CCCB20E490A54201FC87000263F
:102EE000002005E00A49095C3144CEB2411CC8B259
:102EF000A042F7DB2046611CCCB205490E542146A6
:102F00000348FFF7BBFE02B0BDEC0A8B70BD0000AA
:102F1000D102002000007A442DE9F84305460E4610
:102F200017460024AA222146641C26484254214602
:102F3000641C42540B222146641C42540622214642
:102F4000641C425400959DF801202146641C4254A3
:102F50009DF800202146641C425400969DF80120F3
:102F60002146641C42549DF800202046611CCCB2CE
:102F700014490A5400979DF801202046611CCCB2E8
:102F800010490A549DF800202046611CCCB20D491E
:102F90000A544FF00008002006E00A49095C414449
:102FA00001F0FF08411CC8B2A042F6DB2046611CBC
:102FB000CCB2044901F8008021460248FFF75EFECA
:102FC000BDE8F883D10200207FB50024AA22214663
:102FD000641C504842542146641C4254032221463A
:102FE000641C425414222146641C42549DF8012062
:102FF0002146641C42549DF800202146641C425422
:103000009DF805202146641C42549DF8042020466A
:10301000611CCCB23F490A549DF809202046611C2E
:10302000CCB23C490A549DF808202046611CCCB221
:1030300038490A549DF80D202046611CCCB2354910
:103040000A549DF80C202046611CCCB231490A5428
:103050009DF821202046611CCCB22E490A549DF8CF
:1030600020202046611CCCB22A490A549DF8252014
:103070002046611CCCB227490A549DF824202046E2
:10308000611CCCB223490A549DF829202046611CBA
:10309000CCB220490A549DF828202046611CCCB2AD
:1030A0001C490A549DF82D202046611CCCB21949B8
:1030B0000A549DF82C202046611CCCB215490A54B4
:1030C00000222046611CCCB212490A542046611CE1
:1030D000CCB210490A542046611CCCB20D490A54A6
:1030E0002046611CCCB20B490A540025002005E0A3
:1030F0000849095C2944CDB2411CC8B2A042F7DBA3
:103100002046611CCCB203490D5421460148FFF70B
:10311000B5FD7FBDD10200202DE9F84F05460E46D2
:1031200017469846DDE90AAB0024AA222146641C12
:103130005F4842542146641C425402222146641CCA
:10314000425400222146641C425400959DF80120FF
:103150002146641C42549DF800202146641C4254C0
:1031600000969DF801202146641C42549DF80020E1
:103170002146601CC4B24E48425400979DF801207D
:103180002046611CCCB24A490A549DF800202046D2
:10319000611CCCB246490A54CDF800809DF801204C
:1031A0002046611CCCB242490A549DF800202046BA
:1031B000611CCCB23E490A54CDF800A09DF8012014
:1031C0002046611CCCB23A490A549DF800202046A2
:1031D000611CCCB236490A54CDF800B09DF80120EC
:1031E0002146601CC4B2324842549DF8002021465A
:1031F000601CC4B22E4842540C9800909DF80120E7
:103200002046611CCCB22A490A549DF80020204671
:10321000611CCCB226490A540D9800909DF80120FB
:103220002046611CCCB222490A549DF80020204659
:10323000611CCCB21E490A540E9800909DF80120E2
:103240002046611CCCB21A490A549DF80020204641
:10325000611CCCB216490A54002000909DF8012050
:103260002046611CCCB212490A549DF80020204629
:10327000611CCCB20E490A54201FC8704FF00009DF
:10328000002006E00A49095C494401F0FF09411C9D
:10329000C8B2A042F6DB2046611CCCB2044901F85A
:1032A000009021460248FFF7E9FCBDE8F88F0000D6
:1032B000D10200202DE9F0412DED048B82B0B0EE5B
:1032C000408AF0EE608AB0EE419A05460E461746F7
:1032D00000240095AA222146641C4A4842542146F3
:1032E000641C425401222146641C4254002221469F
:1032F000641C42549FED440A28EE000ABDEEC00A49
:1033000010EE100A00B201909DF805202146641CC1
:103310003C4842549DF804202146641C42549FEDD1
:103320003A0A28EE800ABDEEC00A10EE100A00B27A
:1033300001909DF805202146641C324842549DF8B6
:1033400004202046611CCCB22E490A549FED2E0A5F
:1033500029EE000ABDEEC00A10EE100A00B201907C
:103360009DF805202046611CCCB226490A549DF8E0
:1033700004202046611CCCB222490A549DF8032047
:103380002046611CCCB21F490A549DF802202046F9
:10339000611CCCB21B490A549DF801202046611CD7
:1033A000CCB218490A549DF800202146601CC4B2D2
:1033B000144842542046611CCCB212490E54204697
:1033C000611CCCB20F490F54201FC8704FF0000889
:1033D000002006E00B49095C414401F0FF08411C54
:1033E000C8B2A042F6DB2046611CCCB2054901F808
:1033F000008021460348FFF741FC02B0BDEC048B7E
:10340000BDE8F081D10200200000C8420CB50020C8
:10341000019000903348006840F4803031490860E2
:1034200000BF3048006800F4003000900198401C54
:103430000190009818B90198B0F5A04FF1D1294832
:10344000006800F4003010B10120009001E000207D
:1034500000900098012844D122484030006840F094
:1034600080502049403108601F48006840F44040C7
:103470001D4908601B48083000681A490831086077
:103480000846006808600846006840F480500860FC
:103490001648091F0860081F006840F08070091F67
:1034A000086000BF0F48006800F000700028F9D0E5
:1034B00040F202700E4908600A480830006820F0A7
:1034C00003000849083108600846006840F002001F
:1034D000086000BF03480830006800F00C000828AE
:1034E000F8D10CBD0038024000700040085441077C
:1034F000003C02402DE9F04104460F4615461E46A9
:103500002146084800F03EFC3946064800F03CFCE5
:103510002946044800F03AFC3146024800F038FCE5
:10352000BDE8F08100040040042808D14FF0E021FC
:10353000096941F004014FF0E022116107E04FF00A
:10354000E021096921F004014FF0E0221161704788
:103550007047000010B51548006840F4700013492A
:1035600008601348006840F001001149086000201D
:103570000F49083108600E4800680E4908400C49A0
:1035800008600D48091D0860081F006820F48020AD
:10359000091F0860002006490C310860FFF736FF5C
:1035A0004FF0006001498039086010BD88ED00E0EF
:1035B00000380240FFFFF6FE10300024F0B50C4644
:1035C000154600210022068C4FF6FE773E40068409
:1035D000018B028C4FF60C7631407E1C06EA0316F6
:1035E0002E4331434FF6F576324044F00106324324
:1035F00001830284F0BDF0B50C461546002100227F
:103600000026078C4FF6EF7C07EA0C070784018B36
:10361000028C4FF6FF7707EA041640F6FF47394061
:103620004FF6FF7707EA033739434FF6FF7707EA8C
:10363000052739434FF65F773A4046F010073A4383
:1036400001830284F0BDF0B50C461546002100222E
:103650000026078C4FF6FF6C07EA0C070784818B66
:10366000028C4FF6FF7707EA04264FF60C773940B5
:103670004FF6FF7707EA03172F4339434FF2FF57FF
:103680003A4046F480773A4381830284F0BDF0B536
:103690000C461546002100220026078C4EF6FF7CC2
:1036A00007EA0C070784818B028C4FF6FF7707EA45
:1036B000043640F6FF4739404FF6FF7707EA052703
:1036C00039434FF6FF7707EA0337394345F6FF776B
:1036D0003A4046F480573A4381830284F0BD0000AB
:1036E00010B50221764800F083F9002835D07548DE
:1036F000007860B9724800F06CF9734908800120C5
:103700007049087002216E4800F002FA20E06C480F
:1037100000F05FF96D490880084600886A49098809
:10372000884207DB6948008867490988401A684968
:10373000088006E06548008863490988401A6449A2
:10374000088000205F49087000215D4800F0E0F922
:1037500002215B4800F02EF9B1E00421584800F046
:1037600047F9A8B35B48007860B9554800F034F9D0
:10377000594908800120574908700221504800F03B
:103780002BFA20E04E4800F027F9544908800846FB
:10379000008851490988884207DB504800884E4913
:1037A0000988401A4A49488006E04C4800884A493E
:1037B0000988401A4649488000204649087000217F
:1037C0003F4800F009FA04213D4800F0F3F876E0A4
:1037D000FFE708213A4800F00BF9A8B34048007809
:1037E00060B9374800F0FBF83E49088001203C49A9
:1037F00008700221324800F059FA20E0304800F009
:10380000EEF8394908800846008836490988884218
:1038100007DB3548008833490988401A2C498880DD
:1038200006E0314800882F490988401A28498880D5
:1038300000202B4908700021214800F037FA0821A8
:103840001F4800F0B7F83AE0FFE710211C4800F0ED
:10385000CFF8A0B32548007860B9194800F0C2F845
:10386000234908800120214908700221144800F0F2
:103870006FFA20E0124800F0B5F81E4908800846AB
:1038800000881B490988884207DB1A4800881849C4
:103890000988401A0E49C88006E016480088144975
:1038A0000988401A0A49C880002010490870002180
:1038B000034800F04DFA1021014800F07BF810BDDC
:1038C00000000140E4000020F0000020F200002091
:1038D000E8000020E5000020F4000020F6000020B1
:1038E000E6000020F8000020FA000020E700002099
:1038F000FC000020FE00002010B501210E4800F061
:1039000077F8A0B10D480088401C00B20B49088030
:1039100008464088401C00B2488008468088401C09
:1039200000B288800846C088401C00B2C8800121CF
:10393000014800F03FF810BD000C0040640000207A
:103940007FB505460C4601210820FFF75FF8029578
:10395000ADF804400020ADF80600ADF80C0001A958
:103960000D4800F043FA32208DF8000002208DF857
:1039700001008DF8020001208DF803006846FEF773
:10398000D7FC01221146044800F07AF801210248D0
:1039900000F013F87FBD0000000C004021B1028848
:1039A00042F08002028004E002884FF67F731A40E2
:1039B00002807047CA430282704721B1028842F0F8
:1039C0000102028004E002884FF6FE731A40028072
:1039D00070470146486B70470146886B7047014647
:1039E000C86B70470146086C70470146486A7047CB
:1039F00030B50246002000230024158A05EA0103A1
:103A0000958905EA010413B10CB1012000E0002002
:103A100030BD70B505460C46208850B92389A28870
:103A200061882846FFF7CAFDE188284600F0B2F910
:103A300025E0208804280AD12389A28861882846A5
:103A4000FFF7D9FDE188284600F0ADF917E020889E
:103A500008280AD12389A28861882846FFF7F3FD48
:103A6000E188284600F0ACF909E02389A288618842
:103A70002846FFF70CFEE188284600F0AAF970BD41
:103A80001AB183890B43838102E083898B4383814D
:103A90007047000070B5002400220023058C4FF60B
:103AA000FE7635400584028C8388048B4FF68F7533
:103AB0002C40B51E2C400D882C43751E2A408D8944
:103AC0002A434D882A43104DA84202D00F4DA842E8
:103AD00013D14FF6F7752A40CD892A434FF6FB756F
:103AE0002A408D882A434FF6FF652B404FF6FF553D
:103AF0002B400D8A2B434D8A2B43838004838D6892
:103B00004563028470BD00000000014000040140D4
:103B10000A460021018C4FF6FD73194011430184C0
:103B200070470A460021018B4FF6F7731940114385
:103B30000183704770B5002400220023058C4FF6E6
:103B4000EF7635400584028C8388048B48F6FF7538
:103B50002C404FF6FF452C400D884FF6FF7606EAC5
:103B600005252C434FF6DF752A408D8906EA051599
:103B70002A434D8806EA05152A43154DA84202D06E
:103B8000144DA8421DD14FF67F752A40CD894FF6BE
:103B9000FF7606EA05152A434FF6BF752A408D8841
:103BA00006EA05152A434FF6FF352B404FF2FF7505
:103BB0002B400D8A06EA85052B434D8A06EA8505CA
:103BC0002B43838004838D688563028470BD00006D
:103BD00000000140000401400A460021018C4FF61C
:103BE000DF7319404FF6FF7303EA02131943018490
:103BF00070470A460021018B4FF2FF7319404FF6C0
:103C0000FF7303EA022319430183704770B5002450
:103C100000220023058C4FF6FF6635400584028C98
:103C20008388848B4FF68F752C404FF6FC752C40A3
:103C30000D882C434FF6FF552A408D894FF6FF76AD
:103C400006EA05252A434D8806EA05252A43154D2F
:103C5000A84202D0144DA8421DD14FF2FF752A4050
:103C6000CD894FF6FF7606EA05252A434FF6FF3544
:103C70002A408D8806EA05252A434EF6FF752B401B
:103C80004DF6FF752B400D8A06EA05152B434D8A2C
:103C900006EA05152B43838084838D68C5630284FF
:103CA00070BD000000000140000401400A460021F0
:103CB000018C4FF6FF5319404FF6FF7303EA0223BE
:103CC0001943018470470A460021818B4FF6F77330
:103CD000194011438183704770B5002200230024EE
:103CE000058C4EF6FF7635400584038C8488828BE4
:103CF00048F6FF752A404FF6FF452A400D884FF6DB
:103D0000FF7606EA05252A434DF6FF752B408D897F
:103D100006EA05352B434D8806EA05352B430A4D47
:103D2000A84202D0094DA84208D14BF6FF752C409D
:103D30000D8A4FF6FF7606EA85152C438480828330
:103D40008D680564038470BD0000014000040140DB
:103D50000A460021018C4DF6FF7319404FF6FF73A0
:103D600003EA02331943018470470A460021818B1C
:103D70004FF2FF7319404FF6FF7303EA0223194312
:103D8000818370474163704781637047C1637047A7
:103D900001647047028B4FF6F3731A400283028B63
:103DA0000A4302837047028B4FF2FF331A400283AB
:103DB000028B4FF6FF7303EA01231A430283704715
:103DC000828B4FF6F3731A408283828B0A4382837D
:103DD0007047828B4FF2FF331A408283828B4FF6FB
:103DE000FF7303EA01231A4382837047002202888B
:103DF000184B98420ED0184B98420BD0B0F1804F20
:103E000008D0164B984205D0154B984202D0154B5E
:103E1000984204D14FF68F731A404B881A43124BC5
:103E2000984207D0114B984204D04FF6FF431A40F6
:103E30000B891A4302804B68C3620B880385054BCC
:103E4000984202D0044B984201D18B7A0386012319
:103E500083827047000001400004014000040040DC
:103E600000080040000C004000100040001400401A
:103E700010B540F22551084800F038F858B140F22A
:103E80002551054800F00AF80348001D0088C4B217
:103E90002046FCF757FF10BD0044004010B500223B
:103EA000002340F66A14A14200D100BF0A12012487
:103EB0009440A3B2DC43048010BD21B1828942F456
:103EC0000052828104E082894DF6FF731A4082819C
:103ED000704702460020B1F5007F00D100BF138873
:103EE0000B400BB1012000E00020704770B5024686
:103EF000002400230025002040F66A16B14200D1BC
:103F000000BFC1F3421501F01F03012606FA03F3B7
:103F1000012D02D19689334006E0022D02D1168A86
:103F2000334001E0968A33400C12012606FA04F46D
:103F30001688344013B10CB1012000E0002070BDA0
:103F4000F0B50346002400260025002040F66A173D
:103F5000B94200D100BF1846C1F3421401F01F0658
:103F6000012707FA06F5012C01D10C3004E0022CE0
:103F700001D1103000E014301AB107682F430760F8
:103F800002E00768AF430760F0BD00002DE9FF477E
:103F900005460E460024A14600BFA046B08900B1E8
:103FA00000BF2C8A24F44054F08804432C82AC894E
:103FB00041F20C608443B088318908437189084319
:103FC0000443AC81AC8A24F44074B0890443AC82CD
:103FD0006846FEF73BFD2048854202D01F488542D7
:103FE00002D1DDF80C9001E0DDF80890A88900F41A
:103FF000004040B109EBC90000EB091031684900ED
:10400000B0FBF1F707E009EBC90000EB09103168DC
:104010008900B0FBF1F76420B7FBF0F00401200940
:10402000642101FB1078A88900F4004040B13220DF
:1040300000EBC800B0FBF1F000F00700044308E01B
:10404000322000EB08106421B0FBF1F000F00F000B
:1040500004432C81BDE8FF8700100140001401409B
:10406000C1F308028280704700BFFEE703B40198E5
:104070004100009850EAC12018BF04204A0D18BF23
:1040800040F0010040F2FF72B2EB515F08BF40F018
:104090000200012808BF052002B0704700000000A0
:1040A00070B5C1482DED020B2DED0E8B82B0119D28
:1040B00025F000449FEDBEDB9FEDBFEB84423EDB6D
:1040C000A4F140511098A1F17F6108430FD0BC4882
:1040D000844202DC28D1109830B39DED100B02B061
:1040E000BDEC0E8B02B0BDE8704000F069BC9DEDE8
:1040F000100B53EC1D2B51EC100B01F059F99DEDF9
:10410000100B41EC180B53EC1E2B51EC100B01F073
:104110004FF953EC182B00F0EBFE41EC100B02B002
:10412000BDEC0E8B02B070BD0120FCF7ADF802B003
:10413000BDEC0E8B02B0BDE8704000F055BCA1484C
:104140009FEDA18B844256DA9DED100BB4F1795F9F
:104150000ADA51EC100BFFF789FF042808BF00F0C2
:1041600053FC9DED100BDAE753EC102B51EC100BC8
:1041700001F01EF941EC190B95480621B0EE490AF1
:10418000F0EE690A784400F09FFB53EC192B51ECD8
:10419000100B01F00DF941EC1A0B8E48B0EE490AF4
:1041A000F0EE690A0421784400F08EFB53EC192BE1
:1041B00051EC100B01F0FCF853EC182B00F098FEBA
:1041C00041EC100B51EC1A0B53EC102B00F044FF98
:1041D000CDE900019DED000B53EC102B9DED100B74
:1041E00051EC100B01F0E4F89DED101B53EC112B7A
:1041F00000F07EFED2E09DED100B51EC100B00F0B4
:1042000019FD53EC182B01F007FA9FED730BCDE964
:10421000000153EC102B9DED000B51EC100B01F045
:10422000C7F841EC190B6E480621B0EE490AF0EED2
:10423000690A784400F048FB53EC192B51EC100B41
:1042400001F0B6F841EC1B0B6648B0EE490AF0EEFF
:10425000690A0421784400F037FB53EC192B51EC28
:10426000100B01F0A5F853EC182B00F041FE41ECC7
:104270001C0B51EC190B00F05FFD41EC180B5A4878
:104280009FED5BABA04222DC53EC1C2B51EC1B0BD3
:1042900000F0E2FECDE900019DED000B51EC180BA2
:1042A00053EC102B01F084F853EC182B00F020FE97
:1042B00053EC1A2B01F07CF853EC1D2B01F084FA1F
:1042C00053EC1E2B01F0A8F941EC100B5FE08DEDD3
:1042D000008B002000909DED000B51EC180B53EC6F
:1042E000102B00F005FE9DED000B41EC1E0B53EC76
:1042F000102B51EC100B01F05BF853EC192B01F073
:104300008BF953EC1E2B00F0A7FE41EC190B53EC7C
:104310001C2B51EC1B0B00F09FFE41EC1B0B53ECD4
:104320001A2B51EC190B01F043F853EC1D2B01F043
:1043300073F941EC190B53EC1A2B51EC180B01F0EB
:1043400037F853EC1B2B01F033F853EC192B01F029
:104350003BFA9DED000B41EC180B53EC1A2B51EC82
:10436000100B01F025F89FED249B53EC192B01F065
:1043700053F941EC100B51EC180B53EC102B01F0DE
:1043800023FA53EC192B01F047F941EC100B002DE7
:104390003FF7C5AE51EC100B00F06CFD41EC100B7B
:1043A000BDE60000000000000000F03F000000003B
:1043B000075C143326A6913C182D4454FB21F93F89
:1043C0000000F07F0000E03F000000000000F03F30
:1043D000101900001E190000000000000000E03F5E
:1043E00062180000701800003333EF3F0000000037
:1043F0000000000000000040182D4454FB21E93F5C
:1044000070B59B482DED020B2DED068B079D25F019
:104410000044A04218DC9748844202DC0AD1069886
:1044200040B19DED060BBDEC068B02B0BDE87040BF
:1044300000F0C6BA002DCCBF9FED8F0B9FED900B07
:10444000BDEC068B02B070BD8F48A04215DD8F48D1
:10445000A042D8BF4FF0FF3458DD9DED060B51EC64
:10446000100BFFF703FE042808BF00F0CDFA9DED06
:10447000060BBDEC068B02B070BD9DED060B51EC3A
:10448000100B00F0D7FBCDE9060181489FED828B30
:10449000A0423CDD8248A0421FDD00249FED82AB9C
:1044A0009DED060B53EC1A2B51EC100B00F020FD88
:1044B0009DED060B41EC190B53EC1A2B51EC100B34
:1044C00000F076FF53EC182B01F07EF953EC192B1A
:1044D00000F0C2FDCDE9060149E09DED060B012487
:1044E00053EC182B51EC100B00F002FD9DED060B68
:1044F00041EC190B53EC182B51EC100B01F064F943
:1045000053EC192B00F0A8FDCDE906012FE0684817
:10451000A0421FDD02249FED689B9DED060B53EC2E
:10452000192B51EC100B00F043FF53EC182B00F04B
:10453000DFFC9DED060B41EC180B53EC192B51ECF5
:10454000100B01F041F953EC182B00F085FDCDE97B
:1045500006010CE09DED060B032453EC102B9FEDA0
:10456000580B51EC100B00F077FDCDE906019DEDE5
:10457000060B53EC102B51EC100B00F019FF41EC23
:10458000180B53EC182B00F013FF41EC190B4E489D
:104590000621B0EE490AF0EE690A784400F094F979
:1045A00053EC182B51EC100B00F002FF41EC180BF0
:1045B0004648B0EE490AF0EE690A0521784400F059
:1045C00083F953EC192B51EC100B00F0F1FE41EC88
:1045D000100B51EC180B53EC102B002C0EDA00F0E2
:1045E00087FC9DED061B53EC112B00F0E1FE9DEDC9
:1045F000061B53EC112B01F00FF835E000F078FCAE
:104600009DED061B53EC112B00F0D2FE41EC100B7C
:104610002F48784400EBC40090ED001B51EC100BC8
:1046200053EC112B01F0D0F89DED061B53EC112B30
:1046300001F0CAF841EC100B2648784400EBC400A6
:1046400090ED001B51EC100B53EC112B00F0E4FF2C
:1046500041EC100B002DA2BFBDEC068B02B070BD6B
:1046600051EC100B00F006FC41EC100B01E70000D0
:10467000000010440000F07F182D4454FB21F93F46
:10468000182D4454FB21F9BF0000DC3F0000203E00
:104690000000F33F00000000000000000000F03FB9
:1046A0000000E63F000000000000000000000040A5
:1046B0000080034000000000000000000000F83F00
:1046C000000000000000F0BFB215000068150000F7
:1046D000F2140000AA14000070B56B4E2DED040B0F
:1046E0002DED028B82B0DDF81CC0DDE905235C42B4
:1046F0002CF000411C4341EAD474049D22F0004098
:10470000B44205D86C422C4340EAD474B4420BD96D
:104710009DED061B9DED040B02B0BDEC028B04B0B9
:10472000BDE8704000F056B9ACF14054A4F17F648C
:104730001C430BD0022404EAAC7444EAD27405434F
:104740009FED538B9FED542B07D015E09DED040B8F
:1047500051EC100B00F06AF942E0002C11BF012C63
:104760009DED040B02B0BDEC028B04BF04B070BD24
:10477000022C38D0032C3BD00B439FED491B9FEDFF
:104780004A0B0AD0B14218D1B04209D121F0804180
:1047900020F08040079105900FE0002A15DA10E024
:1047A000434B7B44002C08BF93ED000B0DD0012C34
:1047B00010D0022C17D0032C1AD0B0421DD1002AE1
:1047C00003DAB0EE410AF0EE610A02B0BDEC028BF2
:1047D00004B070BD93ED000B51EC100B00F04AFBE0
:1047E00041EC100BF1E7B0EE480AF0EE680AECE796
:1047F000B0EE420AF0EE620AE7E7401A00153C28E4
:10480000C8BF8DED000B19DCBCF1000FBEBF10F16D
:104810003C0F9FED290B8DED000B0FDB9DED060B83
:1048200053EC102B9DED040B51EC100B00F014FC1D
:1048300000F000FA00F0FAF8CDE90001002C08BF02
:104840009DED000BC1D0012C10D0022C9FED1C0B54
:1048500053EC102B9DED000B51EC100B0DD000F024
:10486000B3FF53EC182B00F0AFFFB9E7019880F0CD
:10487000004001909DED000BA7E700F0A5FF53EC71
:10488000182B00F0C9FEABE70000F07F000000002D
:10489000182D4454FB210940182D4454FB2109C014
:1048A000182D4454FB21F9BF182D4454FB21F93F26
:1048B000DA1300000000000000000000000000000B
:1048C000075C143326A6A13C70B504462DED028B7F
:1048D0004D1E00EBC500B0EE408AF0EE608A90ED10
:1048E000000B35F0060017D053EC182B51EC100BD1
:1048F00000F05EFD41EC100B6D1E04EBC50090ED69
:10490000001B51EC100B53EC112B00F0F1FA41ECB1
:10491000100B35F00600E7D1022D36D0042D1CD047
:10492000062D1CBFBDEC028B70BD53EC182B51EC57
:10493000100B00F03DFD94ED0A1B53EC112B00F021
:10494000D7FA53EC182B00F033FD94ED081B53EC11
:10495000112B00F0CDFA41EC100B53EC182B51EC5D
:10496000100B00F025FD94ED061B53EC112B00F00D
:10497000BFFA53EC182B00F01BFD94ED040B53EC25
:10498000102B00F0B5FA41EC100B53EC182B51EC46
:10499000100B00F00DFD94ED021B53EC112B00F0F9
:1049A000A7FA53EC182B00F003FD94ED001B53EC19
:1049B000112B00F09DFABDEC028B41EC100B70BD89
:1049C00010B553EC102B51EC100B00F091FA41ECA8
:1049D000100B10BD10B553EC112B51EC100B00F067
:1049E00087FA41EC100B10BD9FED050B10B553EC91
:1049F000102B51EC100B00F02FFB41EC100B10BDF5
:104A000000000000000000009FED050B10B553EC06
:104A1000102B51EC100B00F0CBFC41EC100B10BD37
:104A2000000000000000001000BF704710B541EC0E
:104A3000100BFFF7E5FC51EC100B10BD10B5044650
:104A40006FF00400FEF770FDE11704EB5171C1F344
:104A5000C701074A11701046007800EB4001C1EB16
:104A6000C0104FF6FF7101EAC0000249088010BD76
:104A7000100000201200002070B504464FF40770AB
:104A800094FBF0F0C6B24FF4077094FBF0F100FB1A
:104A9000114085B205E04FF4077000F02FF8701E4A
:104AA000C6B2002EF7D115B1284600F027F870BD28
:104AB0000146114A12784A434FF0E0235A6100221E
:104AC0009A611A46126942F001021A6100BF4FF062
:104AD000E022106900F001021AB100F48032002ACD
:104AE000F5D04FF0E022126922F001024FF0E023EE
:104AF0001A6100229A617047100000200146114A95
:104B000012884A434FF0E0235A6100229A611A4604
:104B1000126942F001021A6100BF4FF0E0221069F1
:104B200000F001021AB100F48032002AF5D04FF0F3
:104B3000E022126922F001024FF0E0231A61002204
:104B40009A6170471200002010B5FCF7A5FAFCF737
:104B500085FB10BD10B5FBF735FC10BD10B5FDF79A
:104B6000DBFAFDF72BF92A492A48FBF7C9FB2A494A
:104B70002A48FCF72DFA2A492748FCF701FA294868
:104B8000B0F9040004EE900AF8EEE44AB0EE644A8C
:104B90002448B0F9020004EE900AF8EEE44AF0EE80
:104BA000643A2048B0F9000004EE900AF8EEE44AB6
:104BB000B0EE643A1648B0F9040004EE900AF8EE3C
:104BC000E44AF0EE642A1248B0F9020004EE900ABA
:104BD000F8EEE44AB0EE642A0D48B0F9000004EEA5
:104BE000900AF8EEE44AF0EE641A0D48D0ED024A5D
:104BF000B0EE641AD0ED014AF0EE640AD0ED004A3E
:104C0000B0EE640AFCF75EFEFDF7D2FD10BD0000B9
:104C10007E0000206C000020840000207200002034
:104C20002C0100208A00002010B5FDF783FFFDF75E
:104C3000B7FE10BD82B0CDE9000121F00040019027
:104C40009DED000B02B051EC100B7047F0EE400AE6
:104C5000F6EE001A60EEA11AB0EE611AB0EE600A2C
:104C600010EE100A0749A1EB600000EE100A21EED9
:104C7000002AF7EE081A42EE401A61EE801AB0EEF2
:104C8000610A7047DF59375F4FF48060FDF78CFB96
:104C90005420FFF7D3FE4FF4E13000F085F8FDF724
:104CA00061F8FCF7DBFB2A20FDF7DEF8FCF7E4F9FE
:104CB000FDF71CFAFDF7D4FC532140F6C310FDF7B5
:104CC0009FFA532140F2E730FEF73AFEF2EE040A73
:104CD0009FED170AFBF762FBFDF770FB27E0154815
:104CE000B0F90000012804DB002012490880FFF71A
:104CF00031FF1048B0F90200022804DB00200D4902
:104D00004880FFF72BFF0B48B0F90400052804DBAF
:104D1000002008498880FFF787FF0648B0F90600A1
:104D20000F2804DB00200349C880FFF70DFFD6E7FA
:104D30006F12033B6400002000B52DED048B83B09F
:104D400041EC190B00F074FC41EC180B18EE100A42
:104D500018EE901A8DED008B002818BF0120084333
:104D600020F00040C0F17F6000F1E040C00F14D09F
:104D700019EE101A19EE900A8DED009B002918BF4C
:104D80000121084320F00040C0F17F6000F1E040C5
:104D9000C00F04BF0120FBF777FA51EC180B03B0EA
:104DA000BDEC048B00BD000010B588B004460121A5
:104DB0000846FDF71BFE01214804FDF727FE2620CB
:104DC0008DF8040002208DF8050000208DF8060003
:104DD00001208DF8070001A8FDF7AAFA0722022199
:104DE0001A48FCF76CF8072203211848FCF767F80B
:104DF0000C20069002208DF81C008DF81D0000206C
:104E00008DF81E0001208DF81F0006A90F48FCF741
:104E10000EF802940020ADF80C00ADF80E00ADF8CD
:104E20001000ADF814000C20ADF8120002A90848DB
:104E3000FFF7ACF8012240F225510548FFF780F852
:104E400001210348FFF739F808B010BD0000024007
:104E50000044004010B5044600BF40210448FFF75D
:104E600038F80028F9D021460148FFF7F9F810BDBD
:104E70000044004081F00041704780F000407047DE
:104E800021F00041704720F00040704721F00042BF
:104E9000A2F16052B2F5801F01F0004328BFD2F1A9
:104EA0007F6C0BD95FEA001C43EAC20242EB5070F0
:104EB00018BF704728BF20F001007047B2F5801F6F
:104EC000BCBF184670474FEA410C1CF5001F02D2C8
:104ED000084600F0D9BD70B500F014FB0000008951
:104EE000FFF7F6BF4FF00040A0F5800070470000CC
:104EF00010B591EA030F48BF83F0004300F16C84C2
:104F0000841A71EB030C05D2121943EB0C03001B3E
:104F100061EB0C01DFF824E14FEA1154A4EB135CC0
:104F20001EEA430F18BF9EEA445F73D023EA0E03C4
:104F3000DCF1200E21EA045143F4801332D322FA2B
:104F40000CFE10EB0E0023FA0CFE41EB0E01CCF12F
:104F5000200E03FA0EFE10EB0E0051F10001B1F528
:104F6000801FCCF1200E32D201EB045112FA0EF266
:104F7000BDE8104058BF7047401C38BF5FEA42028E
:104F800018BF7047002814BF20F0010041F1000154
:104F90004FEA410313F5001F38BF7047A1F1C0412C
:104FA00000F0FEBA012A43EB0302ACF1200CDCF165
:104FB0001F0E32BF4FF0000E23FA0CF310EB03006C
:104FC00041EB0451B4EB115FD0D0A1EB045101F5DA
:104FD000801149085FEA300001EB04510ED350F113
:104FE000000038BF12FA0EFE08D1BDE81040C9E734
:104FF000401C38BF5FEA4202CAD1C3E7BDE8104097
:105000004FEA410313F5001F38BF7047A1F1C041BB
:1050100000F0C6BA9EEA445F08D011EA5E0FBDE810
:10502000104004BF01F0004100207047BDE810406F
:1050300070B500F067FA00BF64FBBE3E0000E0FF01
:10504000491058BFC1F140415B1058BFC3F1404304
:105050008B42EFF3008070472DE9C04130B4DFF898
:10506000A0C23CEA111418BF3CEA131400F0EC8013
:1050700081EA03051CEA111444EAD57418BF1CEA3E
:10508000131500F0C780A4EB05044FF0004545EA76
:10509000C12145EAC32341EA505143EA525304F186
:1050A0007F74994204F500344FEAC0204FEAC222CF
:1050B00008BF904200F09C804FEA13650FF2401643
:1050C000765D4FEA134506FB05F7C7F1807706FBCF
:1050D00007F74FEAD737A7FB03687642C8F5803851
:1050E000A7FB06CE38BFA8F1010807FB08E64FF082
:1050F000000EA6FB028CE6FB03CEDCF1000CCEF129
:10510000004E38BFAEF1010EA6FB0C584FF0000761
:105110004FF00005E6FB0E87A1FB08C6A0FB07CEFB
:1051200016EB0E0645F10005E1FB076515F1E04EB3
:105130007EBFA4F580345FEA46066D4116F1800714
:1051400045F100054FEA17274FEA066647EA05676B
:10515000A6F1DE46B6F1805F4FEA15251FD9384625
:1051600024F0010C05EBC471BCF1FE6F01EB0C11D6
:1051700002D8F0BCBDE8008124425CBF01F5801E6E
:105180009EEAC47F02D4F0BCBDE80081244238D43A
:10519000F0BCA1F1C041BDE8004100F001BA4FEA06
:1051A000D22242EA43524FEAD323A7FB02864FEAB8
:1051B000D02040EA415007FB03661EEA0E0F4FEA7B
:1051C000D12105FB026658BFA6EB0056B6EB005690
:1051D0004FEA520E4EEAC37E18EB0E0E56EB530EFC
:1051E000BDD518EB02085E417F1C55F10005B6E7FE
:1051F0004FF480154FF000074FF000064FF0000805
:10520000ADE7F0BC4FF0000001F1C04101F00041FA
:10521000BDE8008111EA0C1F0CEA131500D00CE068
:1052200013EA0C1F00F025804FF00000F0BC81EA6B
:10523000030101F00041BDE80081F0BCBDE8004180
:1052400081EA030100F0ACB9F0BCBDE8004170B5E3
:1052500000F058F9097EFC3E00F007B881EA03012E
:105260004FF0000001F00041704781EA030100F0B7
:1052700097B9F0BCBDE800414FF0000021497047EC
:10528000FFFDFBF9F7F5F4F2F0EEEDEBE9E8E6E40B
:10529000E3E1E0DEDDDBDAD8D7D5D4D3D1D0CFCD92
:1052A000CCCBCAC8C7C6C5C4C2C1C0BFBEBDBCBBCB
:1052B000BAB9B8B7B6B5B4B3B2B1B0AFAEADACABC6
:1052C000AAA9A8A8A7A6A5A4A3A3A2A1A09F9F9EA0
:1052D0009D9C9C9B9A999998979796959594939352
:1052E000929191908F8F8E8E8D8C8C8B8B8A8989E9
:1052F000888887878685858484838382828181806C
:105300000000FF070000F87F10F0004248BF404255
:10531000B0FA80F310FA03F10AD0C3F11D0303F5CC
:1053200080634FEA415002EB035202EBD1217047F8
:105330004FF000007047000051EA030C17D41CF531
:10534000801F58BFBCF5801F00F10680994218BF2E
:10535000704708BF9042704707D711F5801F58BFAC
:1053600013F5801F19D499427047894270471CF584
:10537000801F08D5BCF5801FF7D58B4218BF70473A
:1053800008BF824270474FF4001C1CEB410F38BF2E
:105390001CEB430F01D28B42704770B500F0B2F89E
:1053A000922449004FF000514FF08053FFF748BE60
:1053B000DFF848C170B51CEA111E1EBF1CEA1315A8
:1053C0009EEA0C0F95EA0C0F00F06F8081EA03044F
:1053D00023EA4C134EEAD47E21EA4C1141F48011A9
:1053E00043F48013AE44A1FB024CA0FB0365AEF175
:1053F0007F7E361955EB0C05A1FB034C4CF10003E5
:10540000A0FB021C16EB0C06654153F10003094298
:1054100018BF46F0010613F4007F0BD14FEA0331A9
:105420004FEA0530340341EA155140EA16506FF057
:1054300003020AE04FEAC3214FEAC520F40241EA21
:10544000555140EA56506FF0020202EB2E4201EB3A
:10545000025585EACE710AD05FEA440C18BF24F0E9
:10546000004450F1000041F1000120EAD47040F204
:10547000FE7C624500D270BDA84214BF4FF080444C
:105480004FF04044002E08BF0024BEF1806FA8BF3B
:10549000A1F1C041BDE8704080F282804FF0000071
:1054A00001F1C04101F0004170479EEA0C0F0CEA87
:1054B000131518BF95EA0C0F06D04FF0000081EAD3
:1054C000030E0EF0004170BD00F01CF88900013E93
:1054D00000F007B800F009B84FEA430C5FEA5C5CE3
:1054E00008D081EA030100F05BB84FEA410C5FEAA3
:1054F0005C5CF6D14FF00000014970470000FF07E7
:105500000000F87F0EF1020E2EF0030E5EF8046B21
:10551000364205D4012A43EB030515F5001F12D8C6
:10552000012841EB010C1CF5001F0CD80ED14FEAED
:10553000D17C15F5001F0CEB4C0C0CF1020C08BFD4
:105540004CEBD37C04E04FF0080C01E04FEAD37C35
:105550000CEB4C0526FA05F606F00706B6F1040C2E
:1055600006D20EEB860CBDE870404CF0010C604793
:10557000DFE80CF0090B02024FF000414FF0000091
:10558000A1F5002170BD19461046012851EB010418
:1055900018BFD4F5001484BF002001F0004170BD95
:1055A0000808A0F500114FEA3101704753EA010CD9
:1055B00017D41CF5801F58BFBCF5801F00F1068072
:1055C0008B4218BF704708BF8242704707D713F558
:1055D000801F58BF11F5801F19D48B4270479B4222
:1055E00070471CF5801F08D5BCF5801FF7D5994280
:1055F00018BF704708BF904270474FF4001C1CEB67
:10560000430F38BF1CEB410F01D2994270470FB4D2
:105610000CBC03BCFFF7C1BE91EA030F10B581F0CB
:1056200000413FF56DAC83F0004300F0D5B80000B9
:105630002DE9F04101F5801CBCF5001FC0F2A980E6
:105640004FEA115C21EA0C510CF1FD0C41F4801180
:105650005FEA5C0C0CF5C07C01D34000494130A4EA
:10566000890241EA905187028E0E0A0CA45D04FB68
:1056700004F602FB06F6C6F14046A4FB0662F60DF0
:1056800046EA422606FB06F4A4FB01235242C3F17C
:10569000404338BF5B1EA6FB02420024E6FB032406
:1056A000D20B42EA4446A6FB0623A1FB02E2A3FB7F
:1056B00007E4E3FB61426442C2F1404E38BFAEF101
:1056C000010EA6FB04234FF00002E6FB0E32A2FB04
:1056D00003463400E2FB6264A1FB06E6A4FB07E894
:1056E000E4FB61687642C8F1405838BFA8F1010870
:1056F000A2FB06E4A3FB08E5E2FB6854A1FB05E678
:10570000A7FB04E8E1FB648618F1200556F10006CA
:10571000A809A8F11B08B10908F03F08B8F10A0F61
:1057200040EA86601CD901EB0C51BDE8F08100BF56
:10573000FCF5EEE8E2DDD8D3CFCBC7C3C0BDB9B628
:10574000B4B1AEACA9A7A5A3A19F9D9B9A9896952D
:105750009392908F8D8C8B898887868584838281B4
:10576000A0FB006800FB01F208EB4208B8EB8728B9
:1057700007D5341858EB0104D5D5401C51F1000170
:10578000D1E7341A78EB0104CDD4401E71F1000149
:10579000C9E75FEA4C0C5FEA9C5C0DD105D34FF082
:1057A000000001F00041BDE8F081BDE8F04170B5B6
:1057B000FFF7A8FE6DDBFFBEBDE8F0414FF0000033
:1057C000004970470000F87F10B591EA030F48BF09
:1057D00083F000433FF594AB841A71EB030C07D2BE
:1057E00012198CF0004C43EB0C03001B61EB0C0115
:1057F000DFF8A4E14FEA1154A4EB135C1EEA430F57
:1058000018BF9EEA445F00F0B08023EA6E03524264
:1058100021EA0451C3EB6E0338BF5B1EDCF1200E9E
:1058200025D322FA0CFE10EB0E0043FA0CFE41EBDE
:105830000E01CCF1200E03FA0EFE10EB0E0051F11A
:105840000001CCF1200E29D412FA0EF201EB045122
:10585000BDE8104058BF7047401C1CBFB2F1004F5C
:10586000704700280CBF491C20F00100704712EB64
:10587000020E43EB030218BF4FF0010E4EEA420244
:10588000ACF1200CDCF11E0E54D943FA0CFE10EBE7
:105890000E0051F1FF31CCF11E0ED5D50EF1010EE7
:1058A00012FA0EFE404141EB010101EB445C5FEA5C
:1058B0005C5C10D910EBDE7001EB045138BFBEF117
:1058C000004FBDE8104018BF704700280CBF491CAE
:1058D00020F00100704730D24FEAD42C11F50011AE
:1058E00024F400641BD0B1FA81F20B3AA41AA41E6E
:1058F000D2F12003914030FA03F31943904001EBB9
:10590000CC71002C01EB0451BDE81040A8BF7047DA
:1059100001F1C0414FF0000001F000417047B0FAC2
:1059200080F310FA03F100D110BDE41A173C4805CA
:10593000C90AE4E701EB045110BD491001EB045121
:10594000BDE810404FEA300002E04FF00001704720
:105950004A0008BF0042F8D0B2F5001F28BF7047C8
:1059600001F000414FF0000070479EEA445F07D00D
:1059700011EA5E0FBDE8104004BF0021002070470F
:10598000BDE8104070B5FFF7BDFD00BF40DFF63E3B
:1059900083F00041104670470000E0FF43004FEAEB
:1059A000D30C4FEA3C0C43401FBF40070CF1605141
:1059B00013F0FE4F70471CF0006F03D100200CF075
:1059C000004170470CF0004343EA507010B540EAC4
:1059D000CC0000F00EF800BF000000924FEA00017A
:1059E000FFF7DEBD4FF000414FF00000A1F50021B0
:1059F00070470EF1020E2EF0030E5EF8044B2442A7
:105A000004D44FEA4102B2F17F4F11D84FEA40036C
:105A1000B3F17F4F0CD80ED14FEAD07CB2F17F4F5B
:105A20000CEB4C0C0CF1020C08BF4CEBD17C04E0ED
:105A30004FF0080C01E04FEAD17C0CEB4C0324FA48
:105A400003F404F00704B4F1040C06D20EEB840C4A
:105A5000BDE810404CF0010C6047DFE80CF007088F
:105A600002024FF00040A0F5800010BD0846420041
:105A700018BFD2F1807288BF00F0004010BD4FF017
:105A80004070E1EE100A7047FF2141EAD050C00596
:105A90007047000000000000555555555555C53F4D
:105AA0007D6FEB0312D6D4BF5544880E55C1C93F54
:105AB0003B8F68B52882A4BF88B20175E0EF493FEB
:105AC00009F7FD0DE13D023F4B2D8A1C273A03C02B
:105AD000C88A599CE52A004059018D1B6C06E6BF17
